:100000000C9434000C9446000C9446000C9446006A
:100010000C9446000C9446000C9446000C94460048
:100020000C9446000C9446000C9446000C94460038
:100030000C9446000C9446000C94C3000C944600AB
:100040000C9446000C9446000C9446000C94460018
:100050000C9446000C9446000C9446000C94460008
:100060000C9446000C94460011241FBECFEFD8E03C
:10007000DEBFCDBF21E0A2E0B1E001C01D92A331FF
:10008000B207E1F70E946B010C9419020C94000076
:10009000E091030185E0E89FF0011124EC5FFE4F41
:1000A0008481806884830000FECF20916E002D7FC4
:1000B00020936E00E091030125E0E29FF0011124FE
:1000C000EC5FFE4F9383828380916E008260809309
:1000D0006E0090910001809100019817E1F308955E
:1000E000259AC0E285B18C2785B988E893E10E9402
:1000F0005500F8CF229AC4E085B18C2785B988E8ED
:1001000093E10E945500F8CF25E0829FC0011124A1
:10011000FC01EC5FFE4F67706483089521E0FC01F1
:100120002083089525E0829FC0011124FC01E85F2F
:10013000FE4FDB019C91911114C080916E008D7F68
:1001400080936E0080818068808380916E008260E1
:1001500080936E0090910001809100019817E1F367
:10016000E8CF91509C93089525E0829FC00111240F
:10017000FC01EC5FFE4F84818F778483FB018081DB
:100180008F5F80830895FF93EF939F938F939FB723
:100190009F9380E195B1982795B99091000193952F
:1001A000909300018091030190910201981301C086
:1001B00051C00F921F922F923F924F925F926F9277
:1001C0007F928F929F92AF92BF92CF92DF92EF92E7
:1001D000FF920F931F932F933F934F935F936F93D0
:1001E0007F93AF93BF93CF93DF9325E0829F11243A
:1001F000F1E0E4E0E00DF11D7EB76DB7718360833F
:100200009093030110920201929F1124F1E0E4E027
:10021000E00DF11D718160817EBF6DBFDF91CF91D7
:10022000BF91AF917F916F915F914F913F912F91CE
:100230001F910F91FF90EF90DF90CF90BF90AF9004
:100240009F908F907F906F905F904F903F902F90F6
:100250001F900F909F919FBF8F919F91EF91FF9162
:100260001895F894FF93EF939F938F939FB79F9365
:100270000F921F922F923F924F925F926F927F92B6
:100280008F929F92AF92BF92CF92DF92EF92FF92A6
:100290000F931F932F933F934F935F936F937F938E
:1002A000AF93BF93CF93DF931A01F1E0E4E05EB721
:1002B0004DB751834083421B530B8093030110922F
:1002C00002015EBF4DBF90E09F9390E99F93C101F3
:1002D000FB01789409948FE0E4E0F1E0DF011D92E6
:1002E0008A95E9F710920301109202018DB79EB72B
:1002F000909305018093040187E88093080182E0D0
:1003000084BD93E095BD99E197BD80936E00809187
:100310006E00826080936E0020E030E040E050E0AC
:1003200060E770E081E00E94310125E630E040E0C6
:1003300050E06AE770E082E00E9431017894D0E0FA
:1003400080E018E0C5E068E070E0A3E1B1E009E119
:1003500095B1912795B9209100012D1BD0910001F5
:10036000C89FF0011124EC5FFE4F94819770AB01A0
:10037000491B5109249F202D1124E4E0F1E030E0D5
:1003800090916E009D7F90936E004281538124175F
:10039000350728F4421B530B5383428302C0138258
:1003A000128290916E00926090936E003596AE1717
:1003B000BF0731F733E0380F982F933010F080E00B
:1003C00001C0892F20916E002D7F20936E00C89F61
:1003D000F0011124EC5FFE4F248127FD0CC0428107
:1003E0005381452B41F48093020190916E009260FD
:1003F00090936E0009C080916E00826080936E00C1
:100400009F5F3913DACF80E0C89FF0011124EC5FC1
:10041000FE4F948197709B01291B3109209F202D4D
:10042000112427BD20910001909100012917E1F3CB
:060430008FCFF894FFCF0E
:020436000000C4
:00000001FF
